:020000040800F2
:1000000070C2002055030008B5480008693A00088E
:10001000C54000080D1D0008515E000800000000EA
:100020000000000000000000000000009502000831
:10003000591F000800000000F10200089557000851
:100040006F0300086F0300086F0300086F030008C8
:100050006F0300086F0300086F0300086F030008B8
:100060006F0300086F0300086F0300086F030008A8
:100070006F0300086F0300086F0300086F03000898
:100080006F0300086F0300086F0300086F03000888
:100090006F0300086F0300086F0300086F03000878
:1000A0006F0300086F0300086F0300086F03000868
:1000B000615800086F0300086F0300086F03000811
:1000C0006F0300086F0300086F0300086F03000848
:1000D0006F0300086F0300086F030008455E000807
:1000E0006F0300086F0300086F0300086D580008D5
:1000F0009158000885580008795800086F030008D7
:100100006F0300086F0300086F0300086F03000807
:100110006F0300086F0300086F0300086F030008F7
:100120006F0300086F0300086F0300086F030008E7
:100130006F0300086F0300086F0300086F030008D7
:100140006F0300086F0300086F0300086F030008C7
:100150006F0300086F0300086F0300086F030008B7
:100160006F0300086F0300086F0300086F030008A7
:100170006F0300086F0300086F0300080000000011
:100180006F0300086F03000800F002F800F072F837
:100190000AA090E8000C82448344AAF10107DA45E2
:1001A00001D100F067F8AFF2090EBAE80F0013F0C2
:1001B000010F18BFFB1A43F00103184790740000A9
:1001C000B07400000A444FF0000C10F8013B13F02B
:1001D000070408BF10F8014B1D1108BF10F8015BA0
:1001E000641E05D010F8016B641E01F8016BF9D193
:1001F00013F0080F1EBF10F8014BAD1C0C1B09D1EA
:100200006D1E58BF01F801CBFAD505E014F8016B5B
:1002100001F8016B6D1EF9D59142D6D370470000ED
:100220000023002400250026103A28BF78C1FBD8FF
:10023000520728BF30C148BF0B607047662907F0DE
:100240002F81642900F09C81752900F09981732920
:1002500000F02386002070471FB507F0EBF800F090
:1002600021FE04000020002107F050F8E0601FBDCF
:1002700010B510BD00F01AFF1146FFF7EDFF05F0B5
:10028000C5FE00F038FF03B4FFF7F2FF03BC00F037
:100290007BFF00002C4B19680868B0E8F04F80F332
:1002A0000988BFF36F8F4FF0000080F3118870470B
:1002B0000000000008480068006880F308884FF0DC
:1002C000000080F3148862B661B6BFF34F8FBFF3AE
:1002D0006F8F00DF00BF00BF08ED00E0DFF80C000B
:1002E000016841F470010160704700BF88ED00E0D3
:1002F000EFF30980BFF36F8F134B1A681EF0100FD6
:1003000008BF20ED108A20E9F04F106009B44FF0CB
:10031000500080F31188BFF34F8FBFF36F8F06F04B
:10032000A7FB4FF0000080F3118809BC196808682A
:10033000B0E8F04F1EF0100F08BFB0EC108A80F349
:100340000988BFF36F8F70475C000020EFF30580D2
:10035000704700000948804709480047FEE7FEE76C
:10036000FEE7FEE7FEE7FEE7FEE7FEE7FEE7FEE765
:1003700004480549054A064B7047000051580008DB
:100380008901000870BC002070C2002070BE0020EF
:1003900070BE002053EA020C00F069802DE9F04B9A
:1003A0004FF00006002B1FBFB3FA83F503FA05F4E4
:1003B00024FA05F65E4012BF1643B2FA82F502FA3D
:1003C00005F4C5F120051EBF22FA05FC44EA0C0421
:1003D000203556EA044C4FEA144418BF641C4FF011
:1003E00000084FF00009904271EB030C39D300294B
:1003F00019BFB1FA81F701FA07F6B0FA80F700FAEF
:1004000007F6C7F120071EBF20FA07FC46EA0C06D4
:100410002037B6FBF4FCA7EB0507103F07F01F0BD6
:10042000CBF120060CFA0BFB2CFA06F644BFB346C0
:100430000026202FA4BF5E464FF0000B5BEA060C9F
:1004400008BF4FF0010B19EB0B09ABFB027C48EB2B
:100450000608C01B06FB02CC0BFB03CC71EB0C01A6
:10046000C1E70B46024641464846BDE8F08B13B54E
:100470004FF000004FF00001AFF30080BDE81C40DA
:10048000704700000FB41CB5074B06AA7B446946B1
:100490000090059800F0CFFC0020694600F0DEFCDB
:1004A0001CBC5DF814FB0000CD0900000FB41CB5A6
:1004B0000C0007AA009001D02044401E074B7B444B
:1004C00069460190069800F0B6FC002C03D06946FE
:1004D000002000F0C3FC1CBC5DF814FBA509000063
:1004E00070B5044685690068C10601D5302600E074
:1004F0002026C00707D070BDD4E9012130469047BF
:10050000206A401C20626D1EF6D570BD70B5044691
:1005100085690078C00707D170BDD4E9012120208A
:100520009047206A401C20626D1EF6D570BD70B5E4
:100530000C460546012A05D02878800600D5EA69D0
:10054000002302E0012305E05B1C934202D2E05C41
:100550000028F9D1A869E618C01AA861286A1844C9
:1005600028622846FFF7BCFF04E0D5E9012114F812
:10057000010B9047B442F8D32846FFF7C7FF70BD80
:100580002DE9F0410646002410687529314616A56C
:1005900010D0AFF30080002802DA404213A507E034
:1005A00031688A0701D512A502E0490704D511A5D3
:1005B000012401E0AFF3008000210A2206F12407A4
:1005C00009E0B0FBF2FCB0FBF2F302FB1C003030A0
:1005D00078541846491C0028F3D123462A46304651
:1005E000BDE8F04100F0B9B9000000002D000000A6
:1005F0002B000000200000002DE9F05F8946044632
:100600004FF0000ADFF874B1FB44C0F820A0204688
:10061000E1688847002874D0252806D0D4E9012154
:100620009047206A401C2062F1E700265F46204682
:10063000E16888472028054607DB312D05D2781967
:1006400010F8200C08B10643F1E7B00701D526F0F9
:100650000406C4F81CA00027C4F818A02A2D09D04D
:10066000284605F0CCFC38B304EB8708303DC8F8C9
:10067000185019E059F8041B204604EB87029161D9
:10068000E1688847012F054618D1E069002820DA83
:1006900026F020061DE0D8F8180000EB800005EBDE
:1006A00040003038C8F818002046E1688847054601
:1006B00005F0A5FC0028EED1012F0AD02E2D08D17F
:1006C0002046E16888477F1C0546022F46F0200639
:1006D000C4DBA069002803DA404246F00106A061AD
:1006E000F00701D026F010066C2D0BD0682D09D034
:1006F0004C2D39D06A2D35D0742D35D07A2D33D08C
:1007000016E038E0E1682F4620468847B8420546A3
:1007100009D16C2F26D04FF48060E1680643204653
:100720008847054604E06C2F1AD04FF480700643CA
:100730000DB3A5F14100192802D8203546F4006612
:100740004A462946204626604E46FFF777FD80B18F
:1007500001280BD0F61D26F0070000F1080956E726
:100760004020E4E78020D8E70020D6E706F104091E
:100770004DE7284652E7206ABDE8F09F6A6F000007
:1007800010B5431C02E010F8011B71B18107FAD1CA
:100790004FF0013202C88C1A8C4314EAC211F9D00E
:1007A000C01A0A0603D0C01E10BDC01A10BD0A042C
:1007B00001D0801E10BD0902FCD0401E10BD032ACE
:1007C00040F2308010F0030C00F0158011F8013B6E
:1007D000BCF1020F624498BF11F801CB00F8013B55
:1007E00038BF11F8013BA2F1040298BF00F801CB19
:1007F00038BF00F8013B11F0030300F02580083AF0
:10080000C0F0088051F8043B083A51F804CBA0E846
:100810000810F5E7121D5CBF51F8043B40F8043B9B
:10082000AFF30080D20724BF11F8013B11F801CBD0
:1008300048BF11F8012B24BF00F8013B00F801CBA1
:1008400048BF00F8012B704710B5203AC0F00B806C
:10085000B1E81850203AA0E81850B1E81850A0E8C4
:100860001850BFF4F5AF5FEA027C24BFB1E818501E
:10087000A0E8185044BF18C918C0BDE810405FEA8E
:10088000827C24BF51F8043B40F8043B08BF70470A
:10089000D20728BF31F8023B48BF11F8012B28BF0F
:1008A00020F8023B48BF00F8012B70474FF00002D0
:1008B0000429C0F0128010F0030C00F01B80CCF172
:1008C000040CBCF1020F18BF00F8012BA8BF20F8E0
:1008D000022BA1EB0C0100F00DB85FEAC17C24BF34
:1008E00000F8012B00F8012B48BF00F8012B7047DE
:1008F0004FF0000200B5134694469646203922BFB9
:10090000A0E80C50A0E80C50B1F12001BFF4F7AF03
:10091000090728BFA0E80C5048BF0CC05DF804EBE5
:10092000890028BF40F8042B08BF704748BF20F853
:10093000022B11F0804F18BF00F8012B7047704751
:100940007047704710B500F0B1FA006810BD10B5DF
:10095000044600F0ABFA046010BD2DE9F0470D46E7
:1009600099469246044600F124080168880604D599
:10097000E06921F01001216000E00120A84201DDC2
:10098000471B00E00027A1697A1902EB0900081A49
:10099000A0612078C00602D42046FFF7A1FD002602
:1009A00008E0D4E901211AF806009047206A401CAB
:1009B000761C20624E45F4DB2078C0060AD520461E
:1009C000FFF78EFD06E0D4E9012130209047206A30
:1009D000401C2062381EA7F10107F4DC07E0D4E9CF
:1009E000012118F805009047206A401C2062281E4B
:1009F000A5F10105F3DC2046FFF788FD207800060D
:100A000002D50220BDE8F0870120FBE770472DE901
:100A1000FF4F0C461E464FF0FF378BB0D2E9000166
:100A2000DDF860800A908A46C1F30A5505B93D4653
:100A3000002108464FF00000BAF1000F00F440001A
:100A400005DA00EB80004FF4400101EA50004FEA64
:100A50009059B9F1010F00DDB9460A9850EA4A00F1
:100A60000ED044F61050A5F2FF3545432F14B8F1CF
:100A7000000F1ED07542291E1EDDC9F100021CE0C8
:100A8000B8F1010F4FF0000001D0302103E0F24334
:100A900005E02154401CB042FBDB3046002200211F
:100AA00021540B99C1F80880C1E900200FB0BDE8BE
:100AB000F08FBD1B6D1CDEE74A4600DA694206A8CE
:100AC00000F07EFA06AB93E8070003AB83E807006B
:100AD00050460A9900F05FFB8DE80700A0F5005032
:100AE0001F3800900398002D0ADD42F21F014A468C
:100AF0000844002303A90390684600F0C8FD09E0FC
:100B0000A0F500504A461F38002303A90390684609
:100B100000F0D2FD8DE807000004000C03D04FF078
:100B2000FF30410800E01046B8F1000F03D000226A
:100B3000009215461EE0751E05D400F0BBF9303258
:100B400062556D1EF9D5B3460122084302D000223A
:100B50007F1C04E02078302801D100227F1E002A6B
:100B6000099784D01DE0112D07DA00F0A3F9303287
:100B700062556D1C50EA0102F5D1084302D000987D
:100B8000C8B10EE00021681E05E0235C625C63547E
:100B90002254401E491C8142F7DBAB46A81B401E75
:100BA0000990002004F80B000B98099AC0F80880FF
:100BB000C0E9002B7AE711264FF0000857E72DE92E
:100BC000F04F88460446D21D22F0070191B0D1E9CA
:100BD0000001CDE90A0105F03CF902460B98C00F6F
:100BE00001D02D2007E02068810701D52B2002E0ED
:100BF000202101EAC000032A099001D0072A05DB61
:100C000003464146204600F09BF90BE12078800620
:100C100001D5E06900E00620B8F1650F814606D0F5
:100C2000B8F1660F18D0B8F1670F70D131E000202D
:100C3000B9F1110F009001DB112301E009F101036B
:100C40000AAA01A90CA8FFF7E2FEDDE90C70002654
:100C500009F10105834647E001204B4600904FF023
:100C600000470AAA01A90CA8FFF7D1FEDDE90DB0E3
:100C70000C995D46002610B909F101000D18B9EB79
:100C8000050003D4C0F1FF3609F10105A5EB090009
:100C90002BE0B9F1010F01DA4FF001090020B9F1A1
:100CA000110F0090484601DD112300E003460AAA17
:100CB00001A90CA8FFF7ABFEDDE90C704D4600263C
:100CC0008346207800070AD4AB4500DA5D4601A8C8
:100CD000012D04DD411911F8011C302907D04F45C1
:100CE00002DA17F1040F04DA012082460FE06D1ECC
:100CF000EEE7002F02DCED1B3E4403E0781CA84227
:100D000000DD7D1CB81B00F1010A4FF00047207880
:100D1000000703D4AA4501DB4FF0FF3A0021B7F1E9
:100D2000004F0DF143088DF8431024D002202B23EF
:100D3000002F01DA7F422D230A21021EA0F10100BB
:100D400000DC5FB197FBF1FC97FBF1F201FB1C7C2F
:100D500017460CF1300C08F801CDEEE7A8F10100C0
:100D600003702188090501D5452100E06521A0F126
:100D7000010800F8011C09980FA9A1EB0807FF1D45
:100D800000B10120411901EBEA70A1693844081A49
:100D9000401EA0612078C00602D42046FFF7A0FBC9
:100DA000099828B1D4E901219047206A401C2062AB
:100DB0002078C00622D52046FFF792FB1EE0002EC9
:100DC00004DBB34502DD01A8805D00E03020D4E9FA
:100DD00001219047206A401C2062761CAAF1010084
:100DE0005FEA000A0AD100F05DF8C0680168405C63
:100DF000D4E901219047206A401C2062281EA5F1F9
:100E00000105DCDC07E0D4E9012118F8010B90476B
:100E1000206A401C2062381EA7F10107F3DC20463F
:100E2000FFF774FB032011B041E6000001694A1C82
:100E300002610878704700B58FB0CDE9013100211B
:100E4000059105497944CDE9031011466846FFF73D
:100E5000D3FB0FB000BD0000E5FFFFFF0A6802F8FA
:100E6000010B0A607047D1E900239A4202D2531C59
:100E70000B601070704710B5436913B1AFF3008079
:100E800001E0FFF754FB012010BD127800F12401AE
:100E90000A7000224A700122EDE711684FF0FF321C
:100EA000E9E70000004870472CBC0020004870476C
:100EB0000CBC002030B5B0F10A024FEA900E71F17F
:100EC00000034EEA817EB0EB0E0061EB91014FEA28
:100ED000101E4EEA017E10EB0E0041EB11114FEA9D
:100EE000102E4EEA016E10EB0E0041EB11214FEA7D
:100EF000104E4EEA014E10EB0E0041EB114140182E
:100F000041F100014FEAD00040EA41704FEAD101BF
:100F100010EB80054FEA810444EA907444EB01042D
:100F20006D1944EB0404521BA3414FF0000348BF6A
:100F30000A3200D530BD401C41F1000130BD000037
:100F40002DE9F0411F46044603260168072A01F4F3
:100F5000006004DB08B116A505E016A503E008B1A2
:100F600015A500E015A521F010002060A069C01EA5
:100F7000A0610FB1401EA0612046FFF7B1FA4FB14A
:100F8000D4E9012138469047206A401C2062C01CE9
:100F9000206206E0206AFAE7D4E9012115F8010B86
:100FA0009047761EF8D22046FFF7B0FABDE8F081F0
:100FB0004E414E006E616E00494E4600696E6600FD
:100FC0002DE9F047814616468AB0354878440DC869
:100FD0008DE80D0032487844801C03AC0DC884E8CD
:100FE0000D0041F69B300844372190FBF1F290FB55
:100FF000F1F5A5F1800501FB12041B3C02D564420A
:10100000012000E00020DFF898A080460027FA4485
:10101000AAF1BE0A0EE0E0070AD03246684607EBA6
:10102000470101230AEB810100F046FB8DE8070030
:1010300064107F1C002CEED1194F7F44AE3F19E0A5
:10104000E80715D007EB04100DF1180A90E80E0020
:101050008AE80E00C068F04201D198190890324623
:10106000012306A903A800F027FB03AB83E80700D0
:101070006D10641C002DE3D14FF001033246694628
:10108000B8F1000F03A802D000F001FB01E000F06E
:1010900013FBC9E90001C9F808200AB0BDE8F087D0
:1010A00034660000004870470CBC00207546FFF70E
:1010B000F9FFAE4605006946534620F00700854615
:1010C00018B020B5FFF754F9BDE820404FF00006F6
:1010D0004FF000074FF000084FF0000B21F0070120
:1010E000AC46ACE8C009ACE8C009ACE8C009ACE863
:1010F000C0098D46704710B50446AFF30080204606
:10110000BDE81040FFF7BFB84FF0013C50F8042B8A
:1011100051F8043B9A4221D1A2EB0C03934313EA0A
:10112000CC1317D150F8042B51F8043B9A4215D137
:10113000A2EB0C03934313EACC130BD150F8042B0E
:1011400051F8043B9A4209D1A2EB0C03934313EAF2
:10115000CC13DBD04FF00000704700BFD01A01BAAB
:10116000B1FA81F101F0180122FA01F0CB40C1F18E
:101170002001DBB2C0B2C01A2CFA01F3D11A91439C
:1011800011EAC311E6D1704701491820ABBEFEE752
:101190002600020070475FEA400C08BF91F0000F84
:1011A0004FEA8C234FEAC12243EA51514FEA1C50C7
:1011B00018BF00F5F0404FEA300018BF41F0004181
:1011C0005FEA6C5C00F02980BCF1FF3F08BF40F093
:1011D00080407047130C06BF12044FF0100C4FF004
:1011E000000C130E04BF12020CF1080C130F04BF05
:1011F00012010CF1040C930F04BF92000CF1020CCD
:10120000D30F04BF52000CF1010C11464FF0000245
:10121000A0F11F00A0EB0C00704711F0004F08BFB9
:10122000704731F000413FF4D5AF0B0C06BF090405
:101230004FF0100C4FF0000C0B0E04BF09020CF124
:10124000080C0B0F04BF09010CF1040C8B0F04BF39
:1012500089000CF1020CCB0F04BF49000CF1010C0A
:10126000CCF12003A0EB0C0022FA03F302FA0CF2FB
:1012700041EA030100F10100704720F07F4C80EA51
:10128000030023F07F47ACEB070303F57C5300F02A
:10129000004003F1FF032DE980494FEA154B09B4E3
:1012A0004FEA144325EA0B4E24EA03480FF20426C2
:1012B00006EB132749083E785FEA320203FB066714
:1012C000C7F5000707FB06F64FEA54374FEAD64644
:1012D00006F1020607FB066CCCF1005C4FEA1C47E6
:1012E0002CEA074C07FB06F40CFB06F504EB15464D
:1012F0004FEA961634BF00204FF000404FEAD13736
:1013000006FB07FC4FEA1C4C0CFB0BF7D21B03FB44
:101310000CF761EB07010CFB0EF7B0EB074072EB2B
:1013200017420CFB08F734BFA2EB0742B2EB0742AF
:1013300061EB17414FEA0C444FEA910706FB07FCAB
:101340004FEA1C4C0CFB0BF7B0EBC74072EB57326B
:1013500003FB0CF734BFA2EBC742B2EBC74261EB11
:1013600057310CFB0EF7B0EBC70072EB57720CFB5A
:1013700008F734BFA2EBC702B2EBC70261EB5771AB
:10138000039F4FEA816141EA921104EBCC044FEADA
:10139000D1374FEA826206FB07FC42EA90124FEA1D
:1013A00080604FEA1C4C0CFB0BF7D21B03FB0CF7C5
:1013B00061EB07010CFB0EF7B0EB074072EB174235
:1013C0000CFB08F734BFA2EB0742B2EB074261EB1C
:1013D00017414FEA8C554FEA910704EB9C2406FB1A
:1013E00007FC4FEA1C4C0CFB0BF7B0EBC74072EB51
:1013F000573203FB0CF734BFA2EBC742B2EBC74234
:1014000061EB57310CFB0EF7B0EBC70072EB577274
:101410000CFB08F734BFA2EBC702B2EBC70261EBCB
:10142000577115EB4C254FEA816141EA92114FEA61
:1014300082624FEAD13742EA901206FB07FC44F180
:1014400000044FEA80604FEA1C4C0CFB0BF7D21BE8
:1014500003FB0CF761EB07010CFB0EF7B0EB074049
:1014600072EB17420CFB08F734BFA2EB0742B2EB5A
:10147000074261EB174115EB1C154FEA813141EA38
:1014800092414FEA823242EA90424FEA80304FEA7C
:101490000C7644F1000448EA03434EEA0B484FF04F
:1014A000000EB2EB080C71EB030724BF624639460D
:1014B0004EEB0E0E4FF0000B0018524149414BEB22
:1014C0000B0BB2EB080C71EB03077BF1000B24BF95
:1014D000624639464EEB0E0E4FF0000B001852419B
:1014E00049414BEB0B0BB2EB080C71EB03077BF1A3
:1014F000000B24BF624639464EEB0E0E51EA02073E
:1015000018BF46F0010616EB0E7655F1000254F1B5
:10151000000103D5BDE88901BDE80088BDE8890167
:10152000BDE80048B619524141EB0101A3F10103A6
:10153000704780807F7E7D7C7B7A79787776767540
:101540007473727171706F6E6E6D6C6C6B6A6A69B8
:101550006868676666656464636362616160605F52
:101560005F5E5E5D5D5C5C5B5B5A5A5959585857CB
:101570005756565555555454535352525251515033
:1015800050504F4F4F4E4E4D4D4D4C4C4C4B4B4B86
:101590004A4A4A49494948484847474747464646CC
:1015A0004545454444444443434343424242424107
:1015B0004141002B9C4630D477002BD01CB54FEA1C
:1015C000370703B44FF010004FF01001BAF1000FCD
:1015D00006D0BCF1000FDCBF40F0080040F008016D
:1015E0004FF000000FBCBDE810400BF1010BBBF148
:1015F000010F08BF5FEA170722BF12F1010211F1C4
:1016000001014FF0004143F1000300F0004043EAC4
:1016100000007047F9D35708D0E746EA064613F1B1
:10162000400F4FEA16461FDD13F1200FDFBF1643B0
:101630000A46002120335B42BED0C3F1200746EAB0
:10164000064602FA07F74FEA164646EA0706C3F1CE
:10165000200722FA03F201FA07F721FA03F14FF00B
:10166000000342EA0702A7E746EA020646EA064600
:101670004FEA164646EA0106BCBF46EA0646360C65
:101680004FF000034FF000024FF0000194E72DE906
:10169000804C9A46934670B491E8380007C831EA06
:1016A000400C48BF34EA430C03D5FFF7E6FDFFF7D3
:1016B00080FFF0BCBDE8008C2DE9804C9A46934633
:1016C00070B491E8380007C810F0804F08BF13F0DD
:1016D000804F03D100F005F8FFF76BFFF0BCBDE8C9
:1016E000008C20F07F4780EA030023F07F4C07EB5B
:1016F0000C03A3F57C5300F00040A3F1FE0392F02D
:10170000000F00F0B38095F0000F00F077802DE916
:1017100001494FEA11404FEA144621EA004800FB14
:1017200006FC24EA064708FB06F607FB08F800FB60
:1017300007F718EB06484CEB164C4FEA124B18EB28
:1017400007484FEA15464CEB174022EA0B4E0BFBBD
:1017500006FC25EA06470EFB06F607FB0EFE0BFB12
:1017600007F71EEB064E4CEB164C4FF000061EEB37
:10177000074E4CEB174B18EB0B0840F1000018EB31
:101780000E0B58EB000840F100008F1A4FF00001DB
:101790003CBFC943661B14BFB5EB040C00213CBF22
:1017A000C943F61B4FEA17444EEA8E0E27EA04455A
:1017B0004FEA1C4704FB07622CEA074C05FB07F7BE
:1017C0000CFB05F604FB0CFC16EB074642EB17423C
:1017D00016EB0C4642EB1C421BEB060658EB0202D2
:1017E000414146EA9E0601D5BDE80189B61952413C
:1017F00041EB0101A3F10103BDE801894FEA144562
:101800004FEA114724EA054621EA074C05FB07F495
:1018100006FB07F70CFB06F105FB0CFC11EB07417F
:1018200044EB17444FEA124711EB0C4144EB1C44C4
:1018300022EA074C05FB07F206FB07F70CFB06F64E
:1018400005FB0CFC16EB074642EB174216EB0C4669
:1018500042EB1C456A1854F1000148BF7047B619A5
:10186000524141EB0101A3F10103704795F0000FD4
:1018700037D04FEA11424FEA144721EA024624EAE0
:10188000074C02FB07F106FB07F70CFB06F402FB13
:101890000CFC14EB074441EB17414FEA154714EBDE
:1018A0000C4441EB1C4125EA074C02FB07F506FB03
:1018B00007F70CFB06F602FB0CFC16EB074645EBA4
:1018C000174516EB0C4645EB1C42121951F100016D
:1018D00048BF7047B619524141EB0101A3F1010322
:1018E00070474FEA14454FEA114724EA054621EABA
:1018F000074C05FB07F106FB07F70CFB06F24FF060
:10190000000605FB0CFC12EB074241EB174112EB02
:101910000C4251EB1C4148BF7047921841EB01014A
:10192000A3F1010370470000074A064B117823F822
:1019300011000A20491CB1FBF0F300FB13101070DA
:1019400070470000F8BB00209C0500202DE9F04FF7
:10195000002493468A468146A1B02046214622466D
:10196000264612E002EB420509EB450339F9155012
:101970005B88EF17A5FB03C81C4407FB038305FB2B
:1019800006331CEB00005941521C5245EADB4FF470
:101990007A720023FEF7FEFC009023465A4605A10A
:1019A00001A8FEF76FFD01A804F074F921B0BDE8AD
:1019B000F08F00005B25735D2073746570733D25A7
:1019C0006C75202074696D653DEFBFBD256C752079
:1019D0006D730D0A0000000010B5074C4FF0A532E2
:1019E000002100BF50F82130491C534004EBF36242
:1019F0000529F7D3104610BDB979379E10B586B0CA
:101A0000124918226846FEF71FFF11490098114C31
:101A1000884211D1019801280ED16846FFF7DCFFFA
:101A20000599884208D10298206003986060049864
:101A3000A06041F2140005E0002020606060A0601A
:101A400042F21400FFF770FF06B010BD00000E0850
:101A50004E435841D04600202DE9F04395B0002474
:101A6000DFF8B89001251394CDE9019504F0B8FE94
:101A70002B4801680391416804918068059004F047
:101A8000CFFE01A8FFF7A8FF069000F0CBFC0220D4
:101A90000C900B20CDE90A05089413A908A800F0C2
:101AA0002DFC04000DD1DFF87C8001AF46460025F7
:101AB000002357F825203146022000F075FC040071
:101AC00009D000F067FC44F21200FFF72DFF20461A
:101AD00015B0BDE8F0836D1C361D062DE8D300F06F
:101AE00059FC414618220DA8FEF7AEFE0D99494556
:101AF00008D10E98012805D10DA8FFF76DFF1299A6
:101B0000884205D044F21300FFF70EFF0120DFE703
:101B100041F21500FFF708FF0020D9E74E43584176
:101B2000D046002000000E082DE9F74F0D462DEDA0
:101B3000028B84B0DFED538A00EE102AB8EE400A23
:101B40009FED511A51480024C0EE010A00EE105AD0
:101B500007C8B8EEC00A8DE80700DFF834A1A34635
:101B600080EE808A002771E0069807EB470600EBBD
:101B7000460030F91400B0F1000801DAC8F10000A5
:101B800000EE100AF8EEC00A9FED420A20EE800A2D
:101B9000DFED410ABAF9080060EE200A00EE100AF3
:101BA000B8EEC00A60EE800A9FED3C1A80EE810A12
:101BB00004F0D8F9BDEEC00A10EE100A40005FEA4A
:101BC000000916D000EE109A3549B8EEC00AC0EEF2
:101BD000080A10EE900A884215DD32A004F05AF887
:101BE00043F20100FFF7A0FE04B0BDEC028BBDE89C
:101BF000FE8F5DF82410022202EB460221F802B0AB
:101C000021F816B01BE010EE900AB0F17E5F01DA09
:101C1000F7EE000A88EEA00A04F0A4F9BCEEC00AB0
:101C200010EE100A0004000C00D101205DF8241011
:101C3000022202EB460221F8160021F8029004204D
:101C400000EB46004FEAD8720A547F1CAF428BDB90
:101C50001E4820F814501E480555641C032C81DBD7
:101C60001CA004F017F828485C460068C0F824B0AF
:101C7000254801F093F98AF802402946032003F031
:101C80001BFDB1E70024744900007A444075000848
:101C9000C4000020000000420000484300C0A846E5
:101CA00000007A473F204572726F723A2045786390
:101CB0006565646564206D61782073746570206665
:101CC00072657175656E6379210D0A00A0050020AB
:101CD0009D0500205365676D656E746564207072A4
:101CE0006F66696C6520776974682074696D696EC8
:101CF0006720707265736572766174696F6E2062B9
:101D000075696C742E0D0A0058080020FEE700006B
:101D100010B5124C88B0207928B111A003F0BAFF99
:101D2000002008B010BD202215496846FEF78CFD42
:101D300044F6206201216846FFF7F6FE07490020BD
:101D40000A31088088706071207001212171A070B3
:101D50000CA003F09FFF0120E3E70000C400002077
:101D60005B3430365D2043616C69623A2069676E8E
:101D70006F726564202862757379290D0A0000006E
:101D8000587500085B3430365D2043616C69623AF7
:101D9000203336302D646567207472616A65637420
:101DA0006F72792073746172740D0A002DE9FC4121
:101DB000304E01213079012805D002282DD003288A
:101DC00029D1002026E02B4F002418378846A7F1A0
:101DD0000E05285D30B9385D20B9E0B202F004FB91
:101DE00005F80480641C032CF3DB2878002812D04B
:101DF000687800280FD0A87800280CD01E494FF42E
:101E00007A72D1E90001CDE9000101216846FFF7AE
:101E10008BFE02203071BDE8FC8116481430027838
:101E2000002AF8D14278002AF5D180780028F2D132
:101E3000124B03F10C0200BF53F8204042F820403F
:101E4000401C0328F8DB7171FFF706FE78B142F2FF
:101E5000160000BFFFF768FD0320307108A003F0F3
:101E600019FFBDE8FC4141F21300FFF75DBD41F2EF
:101E70001600EFE7C40000202C750008D0460020B3
:101E80005B3430365D2043616C69623A20646F6E6A
:101E9000650D0A0070B50C4D4FF48061284604F0C2
:101EA000E3FB0A4CE9142070284604F0DDFB607067
:101EB000A914284604F0D8FBA0704021044804F07F
:101EC000D3FBE07070BD0000001C0240DC0000206D
:101ED0000000024070B5164B00201449044603F17F
:101EE0000C0500BF00EB400201EB82029480D4801D
:101EF0001C542C54401C0328F4DB4FF4B4652946D1
:101F00000C48FEF7D3FC29460B48FEF7CFFC2946C8
:101F10000A48FEF7CBFC0548383804614461846107
:101F2000C461BDE8704006A003F0B4BEE8460020DE
:101F3000D800002018AB0020B8B0002058B6002010
:101F40003F3F204D6F746F7220737461746520720F
:101F5000657365742E0D0A00704700002DE9F0418D
:101F600002F02CFA184D0021164A0846A2F1380456
:101F7000A5F10C06B5F1040701EB410342F823007B
:101F800002EB83039880D8801881588144F821009F
:101F9000685470547854491C0429EDDB0A492039EF
:101FA000C87008710870074938390861486188614C
:101FB000C86103F051F805A003F06CFE0120BDE8F4
:101FC000F0810000E8460020E40000205B3330335D
:101FD0005D20486172642073746F7020657865635A
:101FE000757465640D0A000072B6FEE7002229B11F
:101FF00001291AD002291BD04FF440720E490B68F8
:1020000023F440730B600B6813430B600A6822F0E3
:1020100078020A600A68022303EBC00002430A60E8
:10202000086840F48030086070474FF48072E5E73C
:102030004FF40072E2E70000103C024013480168D0
:1020400089050FD5016821F400710160016841F430
:1020500000610160016821F400610160016841F4E0
:1020600000710160016849050FD5016821F48061A4
:102070000160016841F480510160016821F48051E0
:102080000160016841F4806101607047003C0240DA
:1020900008490A6822F440720A600A6842F00402A1
:1020A0000A600A684FF4803343EA002002430A6062
:1020B00070470000103C0240064A136823F4407346
:1020C000136013681360136843F001031360017019
:1020D00070470000103C0240094910B50C6824F418
:1020E00040740C600C6844F440740C600C6844F05C
:1020F00001040C600260BFF36F8F436010BD0000ED
:10210000103C0240074A136823F4407313601368BD
:1021100043F480731360136843F00103136001807C
:1021200070470000103C0240074A136823F44073D4
:102130001360136843F400731360136843F00103E2
:102140001360016070470000103C024017490868A6
:10215000C206174805D5C26942F01002C2611022BA
:102160000A600A68920605D5C26942F00802C26197
:1021700020220A600A68520605D5C26942F00402AC
:10218000C26140220A600A68120605D5C26942F09F
:102190000202C26180220A600A68920705D5C269FC
:1021A00042F02002C2610220086070470C3C0240ED
:1021B0002C00002070B5114904460020C86100F0D1
:1021C00049FA06460E4D09E0601C07D024B100F024
:1021D00041FA801BA04201D9032070BD2868C003CA
:1021E000F2D42868C00701D001202860286810F0C8
:1021F000F200F2D0FFF7AAFF012070BD2C000020F2
:102200000C3C024070B508A003F044FD0C4D0024C6
:1022100055F8240020B1404201B2204602F02CFFC4
:10222000641C032CF4DB70BD3E3E20476F546F48A6
:102230006F6D65207472696767657265640D0A0069
:10224000C04600202DE9F0410446876D00F002FAF7
:10225000064694F835000025022806D080206065E7
:1022600084F834500120BDE8F0812068016821F035
:10227000160101602068416921F080014161206CF4
:1022800008B9A06C20B12068016821F00801016044
:102290002068016821F0010101600CE000F0DAF92A
:1022A000801B052807D920206065032084F83500AD
:1022B00084F83450D7E720680068C007EED194F85E
:1022C0005C103F208840B860012084F8350084F815
:1022D00034500020C7E790F83510022903D0802140
:1022E000416501207047052180F8351000680168BC
:1022F00021F0010101600020704700002DE9F04746
:10230000044622480F46017E01290AD00121804659
:1023100001764CF250394846FFF74CFF020003D0DB
:102320002FE00220BDE8F0874FF0FF3038602068D2
:10233000174D012801D0A6681CE0207C6168FFF7DA
:10234000A7FE4846FFF736FF0246286820F0040043
:10235000286014E0217C3046FFF748FE4846FFF72E
:1023600029FF0200286820F07A00286001D03E6032
:1023700005E0761CD4E902100844B042EAD8FFF721
:102380005DFE002188F818101046CBE72C000020D5
:10239000103C02400348016841F000410160002008
:1023A00070470000103C02402DE9F0471B4E0546E7
:1023B0001446307E1F468946012808D00120307619
:1023C0004CF250384046FFF7F5FE18B114E00220F9
:1023D000BDE8F0879DB1012D16D0022D19D02246FF
:1023E0003B464846FFF778FE4046FFF7E3FE0C49C0
:1023F0000A6822F001020A6000213176E8E7E1B2C2
:102400004846FFF759FEEFE7A1B24846FFF77AFECC
:10241000EAE721464846FFF787FEE5E72C00002063
:10242000103C0240074900200A68002A09DA054AE0
:10243000054B0C3A1360054B13600968002900DA5C
:1024400001207047103C024023016745AB89EFCD66
:102450002DE9F84FDFF8BCA10022012503264FF03B
:102460000F090AF1040BAAF1040E00BF0B6805FA6C
:1024700002F42340A34270D10F7907F00307012F24
:1024800001D0022F16D187684FEA420806FA08FCED
:1024900027EA0C07D1F80CC00CFA08FC4CEA070C30
:1024A000C0F808C04768A7430C79C4F300149440EF
:1024B0003C4344600C79E443A4070AD0C4684FEA63
:1024C000420C06FA0CF7BC438F6807FA0CF7274357
:1024D000C7600C7904F00304022C12D1D40800EB7D
:1024E000840CDCF820405707FF0E09FA07F824EAAD
:1024F0000804D1F8108008FA07F848EA0408CCF874
:10250000208004684FEA420C06FA0CF7BC430F79AE
:1025100007F0030707FA0CF7274307604C6814F429
:10252000403F70D03C4C276847F4804727602468C0
:1025300022F0030704F480440094384C07EB040CA9
:10254000DCF8084897074FEA177809FA08F7BC4300
:10255000334FB84202D1002724E054E0314FB84253
:1025600001D101271EE0304FB84201D1022719E006
:102570002E4FB84201D1032714E02D4FB84201D1AC
:1025800004270FE02B4FB84201D105270AE02A4F5C
:10259000B84201D1062705E0284FB84201D10727EC
:1025A00000E0082707FA08F72743CCF80878DAF89C
:1025B00000405746D1F804C09C435FEACC2C00D5BC
:1025C0001C433C60DBF800405F46D1F804C09C43EC
:1025D0005FEA8C2C00D51C433C60DEF80040774657
:1025E000D1F804C09C435FEA8C3C00D51C433C609E
:1025F000084F083F3C68D1F804C09C435FEACC3CDC
:1026000000D51C433C60521C102AFFF42FAFBDE8DC
:10261000F88F0000083C014044380240003001407F
:10262000000002400004024000080240000C02408A
:10263000001002400014024000180240001C02403A
:102640000069084000D0012070470AB181617047DD
:102650000904FBE701488068704700004C00002037
:102660000248816802781144816070474C00002064
:102670000B4810B5016841F400710160016841F434
:1026800080610160016841F480710160032000F005
:102690009FF80F2000F006F800F050F8002010BD61
:1026A000003C024030B50546204887B00024016850
:1026B00041F001010160006806A900F001000090EE
:1026C00001A800F031F90498B0B100F04DF94000D4
:1026D00017494FF08042B0FBF1F11648491E0260E5
:1026E00040F2E732C0E90324C0E90114846100F03C
:1026F000B7FB040003D015E000F036F9E8E70D4819
:1027000000F088FC04000DD11C2000F033F8102DDF
:1027100007D2002229461C2000F03AF8064805603E
:1027200000E0012407B0204630BD000040380240E0
:1027300040420F0078090020500000200C4882B071
:10274000016841F480410160006800F4804000901D
:102750000748001F016841F08051016000680022B5
:1027600000F0805000900F21901E02B000F010B8D1
:1027700044380240002809DB00F01F02012191408B
:102780004009800000F1E020C0F80011704700000F
:10279000F0B40E4B1B680C46C3F30223C3F10705CC
:1027A000042D00D90425191D072901D2002300E0BA
:1027B000DB1E012606FA05F1491E214099409E4084
:1027C000761E16403143F0BC03F05BBB0CED00E01D
:1027D000064900F0070208684FF6FF03184040EA78
:1027E0000220034A10430860704700000CED00E02F
:1027F0000000FA052DE9F0470E46050065D0DFF828
:102800001481D8F80000F7B200F00700B04207D2F8
:1028100088F80070D8F8000000F00700B04254D1EA
:1028200028683D4C810712D5400703D5206840F445
:10283000E05020602878000703D5206840F460400D
:1028400020602068A96820F0F00008432060287804
:10285000C0072DD0304968680839012812D00228F5
:1028600013D0032811D00968890700292DDA2168BF
:1028700021F0030101432160FFF7ECFE814641F2A4
:10288000883A0EE009688903EFE709688901ECE7F7
:10289000FFF7E0FEA0EB0901514502D90320BDE896
:1028A000F0872068696800F00C00B0EB810FEFD171
:1028B000D8F80010404601F00701B14207D907706F
:1028C000006800F00700B04201D00120E7E7287857
:1028D000400705D52068E96820F4E05008432060EF
:1028E0002878000706D52068296920F4604040EA6E
:1028F000C100206000F058F82168084AC1F30311B4
:10290000515CC8400649086006480068FFF7CAFEE7
:102910000020C4E7003C024008380240147500085B
:1029200058000020500000200F2202600C4A13685B
:1029300003F003034360136803F0F003836013683C
:1029400003F4E053C36012684FF4E05303EAD20289
:1029500002610448006800F007000860704700004A
:1029600008380240003C02400448054900680968F4
:10297000044AC1F38221515CC840704758000020CE
:1029800008380240247500080448054900680968B1
:10299000044AC1F34231515CC840704758000020DE
:1029A0000838024024750008154810B5006810F07A
:1029B0000C02144813D01449042A0FD0082A0ED14F
:1029C0000F4C241F2268236802F03F025B0207D5E8
:1029D0002068C0F38810A0FB010106E0084610BD86
:1029E0002168C1F38811A1FB00010023FDF7D2FC8F
:1029F0002168C1F30141491C4900B0FBF1F010BD51
:102A0000083802400024F40040787D012DE9F84F99
:102A100004006ED02078DFF84C93C007A9F10405BC
:102A20004AD009F104000168C1F38101012908D0ED
:102A30000068C0F3810002280AD1D9F800004002E2
:102A400006D52868800337D560680028E1D033E0D8
:102A50006068B0F5803F10D0B0F5A02F286810D086
:102A600020F480302860286820F480202860606886
:102A7000A8B1FFF7EFFD06460DE0286840F480306E
:102A8000F4E740F480202860F7E700BFFFF7E2FD9D
:102A9000801B642873D828688003F7D50CE0FFF703
:102AA000D9FD064605E000BFFFF7D4FD801B642872
:102AB000F0D828688003F7D42078DFF8AC8280074C
:102AC0004FF0000A3ED5A748001D016811F00C0F19
:102AD00008D00068C0F3810002280BD1D9F80000AB
:102AE000400207D42868800716D5E068012800D185
:102AF00012E033E1E068B8B10120C8F80000FFF748
:102B0000A9FD064605E000BFFFF7A4FD801B0228D3
:102B1000C0D828688007F7D52868216920F0F80018
:102B200040EAC10028600DE0C8F800A0FFF792FD60
:102B3000064604E0FFF78EFD801B02281FD8286898
:102B40008007F7D42078000722D5864F874861692F
:102B5000703771B101210160FFF77CFD064604E08A
:102B6000FFF778FD801B022809D838688007F7D561
:102B70000EE0C0F800A0FFF76DFD064605E082E01C
:102B8000FFF768FD801B02287DD838688007F7D4DE
:102B90002078400768D5DFF8CCB100270BF13C0B5B
:102BA000DBF80000C0000BD4DBF8001041F08051CE
:102BB000CBF80010DBF80000012700F080500090F7
:102BC0006B4E3068C00510D4306840F480703060BF
:102BD000FFF740FD009005E0FFF73CFD0099401A2B
:102BE000022850D83068C005F6D55E4EA0686C3615
:102BF00001280FD00528306810D020F00100306087
:102C0000306820F004003060A068B8B1FFF722FD02
:102C100000900FE0306840F00100F4E740F004005D
:102C20003060F7E7FFF716FD0099411A41F288304E
:102C3000814266D830688007F4D50EE0FFF70AFDC0
:102C4000009007E0FFF706FD0099411A41F2883035
:102C5000814256D830688007F4D42FB1DBF80010D9
:102C600021F08051CBF80010A069C8B33D49091D7F
:102C70000968C1F3810102294AD00228504607D0D1
:102C8000C8F8600000E03CE0FFF7E4FC04463BE0ED
:102C90004746C8F86000FFF7DDFC064605E000BFC8
:102CA000FFF7D8FC801B02282BD828688001F7D4B6
:102CB000D4E907010843A16A2E4A490802EB014101
:102CC000626A41EA8211084394F82C1040EA0161DB
:102CD000C9F8001001203866FFF7BCFC044606E086
:102CE0003EE000BFFFF7B6FC001B022809D82868A9
:102CF0008001F7D534E000BFFFF7ACFC001B0228D1
:102D000002D90320BDE8F88F28688001F4D427E0B9
:102D10000128F7D0D9F80000E26900F4800191425F
:102D20001CD1226A00F03F01914217D147F6C071D1
:102D3000626A0140B1EB821F10D1A26A4FF0FF33EB
:102D400000F4403103EB5202B1EB024F06D194F88C
:102D50002C1000F07060B0EB016F01D00120D1E7C2
:102D60000020CFE70438024000004742800E47426F
:102D7000007000400000FFFF7047704710B590F8EA
:102D80003C20012A22D0012280F83C20CA688C68AD
:102D900022F4407222434C6822F4806222430C6881
:102DA00022F4006222430C6922F4805222434C69CF
:102DB00022F400522243C969002322F480420A43CC
:102DC00001684A6480F83C30002010BD022010BD2C
:102DD00070B590F83C20012A32D0012480F83C40A4
:102DE000022280F83D2003685A689D6822F0700630
:102DF0000A6832435A60134B02689A4214D0B2F107
:102E0000804F11D0104B9A420ED0104B9A420BD0EB
:102E10000F4B9A4208D00F4B9A4205D00E4B9A4264
:102E200002D00E4B9A4204D1496825F08003194321
:102E3000916080F83D40002180F83C10084670BD4C
:102E4000022070BD00000140000400400008004066
:102E5000000C004000040140004001400018004008
:102E600010B5040003D094F83D0010B107E0012034
:102E700010BD002084F83C00204600F01FF802201E
:102E800084F83D00211D206802F008FD012084F82F
:102E9000460084F83E0084F83F0084F8400084F83F
:102EA000410084F8420084F8430084F8440084F828
:102EB000450084F83D00002010BD000010B586B02C
:102EC000044614216846FDF713FD2F4B22680021AC
:102ED0002E489A421ED1026842F002020260006847
:102EE00000F00200059029481038026842F0040200
:102EF0000260006800F004000590C02000900220ED
:102F0000CDE90101CDE9031069462148FFF7A0FA98
:102F100006B010BD1F498A4208D1016841F008017E
:102F20000160006800F008000590F1E71A4882424D
:102F3000EED11648001D016841F0020101600068F1
:102F4000002200F00200059005212B20FFF720FC55
:102F50002B20FFF70FFC002205212C20FFF718FC87
:102F60002C20FFF707FC002205212D20FFF710FC85
:102F70002D20FFF7FFFB002205212E20FFF708FC84
:102F80002E20FFF7F7FBC3E7000400404038024063
:102F900000080240000C00400004014090F83D1081
:102FA000012901D001207047022180F83D100068FE
:102FB0001149884214D0B0F1804F11D00F49884296
:102FC0000ED00F4988420BD00E49884208D00E49D6
:102FD000884205D00D49884202D00D49884204D16B
:102FE000816801F00701062903D0016841F0010161
:102FF0000160002070470000000001400004004014
:1030000000080040000C0040000401400040014066
:103010000018004090F83D10012901D001207047B0
:10302000022180F83D100168CA6842F00102CA60BE
:1030300000681149884214D0B0F1804F11D00F4977
:1030400088420ED00E4988420BD00E49884208D0E3
:103050000D49884205D00D49884202D00C4988426A
:1030600004D1816801F00701062903D0016841F00D
:103070000101016000207047000001400004004091
:1030800000080040000C00400004014000400140E6
:103090000018004070B5044690F83C000025012857
:1030A00017D0012684F83C60022084F83D00206897
:1030B000826822F0770222F47F42826008685028FA
:1030C00038D00DDC20284FD005DC90B3102811D16A
:1030D0004AE0022070BD302846D040280AD13BE0AB
:1030E00060282FD070280DD0B0F5805F03D0B0F5E8
:1030F000005F12D0012584F83D60002084F83C0078
:10310000284670BDCB68D1E90121206802F03BFC64
:103110002068816841F0770109E0CB68D1E901219D
:10312000206802F030FC2068816841F480418160B1
:10313000E1E719E0CA684968206802F0F9FC50210B
:10314000206806E0CA684968206802F002FD602134
:10315000206802F022FCCEE7CA684968206802F0C5
:10316000E7FC40212068F4E7226801461046F0E7BA
:1031700070472DE9F04104460068C66805694FF0C4
:103180000007A90713D5B10711D5F91E0161012068
:103190002077206880698007204602D0FFF7E8FF8B
:1031A00004E000F0D2F8204600F0D8F9277768074D
:1031B00016D5700714D521686FF00400086102204D
:1031C00020772068806910F4407F204602D0FFF706
:1031D000CFFF04E000F0B9F8204600F0BFF92777F0
:1031E000280715D5300713D521686FF0080008614E
:1031F000042020772068C0698007204602D0FFF7AE
:10320000B7FF04E000F0A1F8204600F0A7F9277707
:10321000E80616D5F00614D521686FF01000086195
:10322000082020772068C06910F4407F204602D033
:10323000FFF79EFF04E000F088F8204600F08EF9CA
:103240002777E80708D0F00706D021686FF0010063
:103250000861204600F083F9280608D5300606D517
:1032600021686FF0800008612046FFF785FD680641
:1032700008D5700606D521686FF040000861204629
:1032800000F074F9A8060AD5B00608D521686FF0D9
:10329000200008612046BDE8F041FFF76EBDBDE8A3
:1032A000F081000010B586B0044614216846FDF791
:1032B0001FFB0E492068884215D10D480021026885
:1032C00042F480720260006800F480700590E4208F
:1032D00000900220CDE901010320CDE903106946E9
:1032E0000448FFF7B5F806B010BD00000004014027
:1032F000303802400020024070B5044690F83C008F
:10330000002501280FD0012084F83C006AB1042A6E
:103310000FD0082A11D00C2A13D00125002084F8E0
:103320003C00284670BD022070BD206802F03EFBC4
:10333000F4E7206802F06AFBF0E7206802F09CFBEB
:10334000ECE7206802F0CCFBE8E701F071B810B5BB
:10335000040003D094F83D0010B107E0012010BD37
:10336000002084F83C00204600F01EF8022084F87B
:103370003D00211D206802F091FA012084F84600EA
:1033800084F83E0084F83F0084F8400084F841004F
:1033900084F8420084F8430084F8440084F845002F
:1033A00084F83D00002010BD7047000030B50025B6
:1033B0000446022249B1042912D008294CD094F8BD
:1033C0004100012853D0012030BD94F83E0001286F
:1033D000F9D184F83E202068C26842F0020209E078
:1033E00094F83F000128EED184F83F202068C2689D
:1033F00042F00402C2600122206802F0B7FA2149BB
:103400002068214A884201D0904203D1436C43F4A2
:10341000004343642068884213D0B0F1804F10D03D
:103420001A4988420DD01A4988420AD0194988425F
:1034300007D0904205D01849884202D017498842E7
:1034400004D1816801F00701062903D0016841F029
:1034500001010160284630BD94F840000128B2D136
:1034600084F840202068C26842F00802C2E784F86D
:1034700041200C2901D00125ECE72068C26842F008
:103480001002B7E7000001400004014000040040C2
:1034900000080040000C00400040014000180040BF
:1034A00070B50D0004464FF0000607D0042D0AD079
:1034B000082D0DD00C2D10D001263FE02068C168EA
:1034C00021F002010DE02068C16821F0040108E04C
:1034D0002068C16821F0080103E02068C16821F07C
:1034E0001001C16000222946206802F03FFA194B02
:1034F00041F2111120688A10984202D0164B98426E
:1035000009D1036A0B4206D1036A134203D1436C0B
:1035100023F4004343642068036A0B4206D1016A26
:10352000114203D1016821F00101016001203DB188
:10353000042D08D0082D09D084F84100304670BD14
:1035400084F83E00FAE784F83F00F7E784F840008B
:10355000F4E70000000001400004014070470068EB
:10356000B0F1804F01D1FFF77BB8704770477047CB
:1035700070470000F8B5016804460868CA684B69DE
:1035800010F00F0F4FF0000559D003F0010602F4C0
:103590009077374365D0C10705D0D10503D5616C5D
:1035A00041F001016164410705D5D90703D0616C81
:1035B00041F002016164810705D5D90703D0616C30
:1035C00041F004016164010707D502F02001314395
:1035D00003D0616C41F008016164616C00293AD04C
:1035E000800604D5900602D5204602F0F2FA206843
:1035F0004069616CC0F38010090700D460B32046B5
:1036000002F0C0FA20684069400621D520681430D5
:1036100050E8001F21F0400140E80012002AF5D1D7
:10362000E06BA8B172490165E06BFEF754FE00281B
:1036300011D0E06B016D01B0BDE8F0400847830692
:103640000FD593060DD52046BDE8F84002F0C1BA6B
:103650002046FFF78DFFF8BD2046FFF789FF656420
:10366000F8BD266B2023012E7ED1C6067CD5D6065A
:103670007AD508684868009048694FF0020640060D
:103680004DD5E26B106840684FF480770004000C61
:103690003AD0A18D814237D9E085D069B8422DD08A
:1036A00020680C3050E8001F21F4807140E80012BF
:1036B000002AF5D12068143050E8001F21F00101E4
:1036C00040E80012002AF5D12068143050E8001FAD
:1036D00021F0400140E80012002AF5D184F8423080
:1036E000256320680C3050E8001F21F0100140E8ED
:1036F0000012002AF5D1E06BFEF7A4FD6663A08DF1
:10370000E18D401A81B206E0A18D8142A8D1D06935
:10371000B842A5D166632046FFF729FFF8BDA08D0A
:10372000E18D401A81B2E08D0028F7D00029F5D054
:1037300020680C3050E8002F22F4907240E80027F7
:10374000002FF5D12068143050E8002F22F001023C
:1037500040E80027002FF5D184F842302563206827
:103760000C3050E8002F00E006E022F0100240E8A4
:103770000023002BF3D1CDE705062BD5150629D55F
:1037800094F841002128C9D1A068B0F5805F01D12B
:103790002069B0B1206A411C21622168007848602C
:1037A000E08C401E0004000CE084B7D12068C168A2
:1037B00021F08001C1602068C16841F04001C16012
:1037C000F8BD206A0088C0F308004860206A801CA9
:1037D0002062E5E74006F3D55006F1D5CA682046D9
:1037E00022F04002CA6084F8413000F03CF9F8BD94
:1037F000775B000870B5040004D094F84100002500
:1038000010B106E0012070BD84F84050204600F061
:1038100023F8242084F841002068C16821F4005175
:10382000C160204602F04EFA2068016921F49041FF
:1038300001612068416921F02A0141612068C16865
:1038400041F40051C1606564202084F8410084F88F
:1038500042006563002070BD70B586B00446142137
:103860006846FDF745F8274E2368002226490224C2
:1038700007252648B3421DD1234B14331E6846F05A
:1038800010061E601B6803F0100305930B6843F0DD
:1038900002030B600968049501F002010591C02143
:1038A000CDE900140321CDE902216946FEF7D0FDE0
:1038B00006B070BD164EB342FAD1134B10331E68DA
:1038C00046F480261E601B6803F4802305930B6872
:1038D00043F002030B60096801F0020105914FF407
:1038E00040610091CDE90142CDE903256946FEF72B
:1038F000AFFD002205212720FEF74AFF2720FEF713
:1039000039FFD5E700100140303802400004024082
:10391000004800402DE9F84F044690F842009A46CE
:1039200016460D46202802D00220BDE8F88FB5B11A
:10393000AEB100206064222184F842102063FEF7BB
:1039400089FEA6858146E685A0684FF48058202729
:10395000404501D1206920B12E46002529E00120F3
:10396000E3E7002625E04B46002220212046CDF843
:1039700000A002F02DFA18B184F842700320D4E7B9
:1039800026B1A06840451AD038B108E020684068E8
:10399000C0F3080025F8020B08E0206978B1206820
:1039A000406800F07F0000BF06F8010BE08D401E6C
:1039B000E085E08D0028D6D184F84270B5E7206814
:1039C0004068F1E770472DE9F843044690F841005C
:1039D000984616460D46202802D00220BDE8F883FE
:1039E00085B17EB100206064212084F84100FEF79B
:1039F00031FEA6848146E684A0682027B0F5805F6A
:103A000002D003E00120E9E7206910B12E4600252D
:103A10000EE000260CE08021204602F0D9F9A8B97A
:103A2000C6B116F8010B21684860E08C401EE084A6
:103A3000E08C4B464FF00002CDF800800028EAD120
:103A40004FF04001204602F0C3F940B184F84170C4
:103A50000320C3E735F8020BC0F30800E3E784F85E
:103A600041700020BAE77047FEE7000010B5012161
:103A70000348FEF7E5FD002800D0012010BD00003E
:103A80000010024010B502210348FEF7D9FD0028BE
:103A900000D0012010BD00000010024010B504212C
:103AA0000348FEF7CDFD002800D0012010BD000026
:103AB0000010024010B508210348FEF7C1FD0028A0
:103AC00000D0012010BD00000010024010B51021F0
:103AD0000348FEF7B5FD002800D0012010BD00000E
:103AE0000010024070B50D46044600F01DF80C4A67
:103AF0000C49135D834202D0105541F8245051F80F
:103B00002400281A192809D30549105D491F0B5DA7
:103B1000834203D0085508B1012070BD002070BD5C
:103B200025000020A805002010B505280AD2DFE8EE
:103B300000F003060B0E1100FFF798FF01E0FFF7FE
:103B4000A1FF50B1002010BDFFF7A8FFF9E7FFF774
:103B5000B1FFF6E7FFF7BAFFF3E7012010BD000061
:103B60002DE9F043B3B0894607461CA122A8FCF713
:103B700089FC22A802F08EF8002427E004EB44011F
:103B80004FF47A7C37F9115007EB4101E8174E8862
:103B90000021A5FB062300FB063005FB0101A2FB6B
:103BA0000C0801FB0C81002302FB0311114AFCF7F6
:103BB000F1FBCDE900602B4622460FA102A8FCF7DD
:103BC00061FC02A802F066F8641CA4B24C45D5D38F
:103BD00015A002F05FF833B0BDE8F0833D3D3D2015
:103BE00050726F66696C65205B25735D203D3D3DBD
:103BF0000D0A000040420F005365676D656E74202A
:103C00002532643A2064656C74613D25346420205B
:103C10007265706561743D25346420207E25346CA6
:103C200075206D730D0A00003D3D3D3D3D3D3D3D20
:103C30003D3D3D3D3D3D3D3D3D3D3D3D3D3D3D3DB4
:103C40000D0A000010B59CB000220221082002F0ED
:103C5000B7FF1A4C606018B944F21110FDF764FE0A
:103C60001C2217496846FCF7EFFD0021684602F068
:103C70000DFA134920611C221C3107A8FCF7E4FD52
:103C8000002107A802F002FA0D4960611C223831B8
:103C90000EA8FCF7D9FD00210EA802F0F7F908499B
:103CA000A0611C22543115A8FCF7CEFD002115A8F7
:103CB00002F0ECF9E0611CB010BD00000000002033
:103CC000A47400082DE9F04F87B014216846FCF772
:103CD0000FFE66480025016841F01001016001688F
:103CE00001F010010591016841F4807101600168E3
:103CF00001F480710591016841F0200101600168C3
:103D000001F020010591016841F0010101600168A5
:103D100001F001010591016841F0020101600168B3
:103D200001F002010591016841F080010160016824
:103D300001F080010591016841F00801016001680E
:103D400001F008010591016841F00401016000687B
:103D5000DFF81CA100F004004FF4806405900022FD
:103D600021465046FEF771FCDFF808B140F6060721
:103D7000002239465846FEF768FC00224FF4C07115
:103D80003D48FEF762FC40F68809002249463B4860
:103D9000FEF75BFC4FF48078002241463848FEF77E
:103DA00054FC1F204FF48816CDE9000669460295A1
:103DB0003448FEF74DFB00940124CDE901456946E6
:103DC00050460395FEF744FBCDE900740327CDE987
:103DD000025769465846FEF73BFBCDF80080CDE917
:103DE000016469465846FEF733FB4020CDE90006E2
:103DF000694602942448FEF72BFB80208DE8B10031
:103E000069461D48FEF724FB0220CDF8008003958B
:103E1000CDE9014069461848FEF71AFB4FF4E0501F
:103E2000CDE90006694602941348FEF711FB4FF4F2
:103E30006040CDE90006694602941448FEF708FB8D
:103E400001AACDF8009082E8B00069460B48FEF761
:103E5000FFFA01AACDF8008082E8B0006946084860
:103E6000FEF7F6FA07B0BDE8F08F000030380240E8
:103E70000020024000140240001C0240000C0240DE
:103E8000000802400010024000000240000402400E
:103E900010B586B00024174800940194029403944E
:103EA00004941349059401605321C0E901144FF6AD
:103EB000FF71C0E903148461FEF7D2FF08B1FEF779
:103EC00093F84FF48050009069460A48FFF7E2F8F3
:103ED00008B1FEF789F8049404A906480594FEF792
:103EE00077FF002801D0FEF77FF806B010BD000074
:103EF000000400401008002010B586B000241648C9
:103F0000009401940294039404941249059401606E
:103F10005321C0E90114611EC0E903148461FEF756
:103F20009FFF08B1FEF760F84FF48050009069469B
:103F30000948FFF7AFF808B1FEF756F8049404A952
:103F400005480594FEF744FF002801D0FEF74CF821
:103F500006B010BD000C00405808002010B596B007
:103F600000240F9410941194129413941C21684609
:103F70001494FCF7BDFC202107A8FCF7B9FC3448D9
:103F8000324901605321C0E901144FF6FF71C0E9C5
:103F9000031444618461FEF763FF08B1FEF724F85F
:103FA0004FF480500F900FA92948FFF773F808B11C
:103FB000FEF71AF82648FFF7CAF908B1FEF714F819
:103FC000139413A922481494FEF702FF08B1FEF7D8
:103FD0000BF83020CDE90004029403940494059476
:103FE000002269461A480694FFF786F908B1FDF7E2
:103FF000FBFF042269461648FFF77EF908B1FDF77A
:10400000F3FF082269461248FFF776F908B1FDF779
:10401000EBFF0C2269460E48FFF76EF908B1FDF779
:10402000E3FF0794089409944FF400500A94CDE9F3
:104030000B4007A906480E94FEF7A0FE08B1FDF755
:10404000D3FF0348FFF72EF916B010BD000401405E
:10405000A00800200C4810B50A4901604FF4E13176
:104060004160002181600C22C160C0E904128161BD
:10407000C161FFF7BFFB002803D0BDE81040FDF78A
:10408000B3BF10BD00100140E80800200C4810B577
:104090000A4901604FF4E1314160002181600C2246
:1040A000C160C0E904128161C161FFF7A3FB002870
:1040B00003D0BDE81040FDF797BF10BD0048004099
:1040C00030090020FEE770B505464FF6FF7000226C
:1040D0004AF201040EE0AB5C58400023C60702D050
:1040E00084EA500000E040085B1CDBB2082BF5D3EB
:1040F000521C92B28A42EED370BD2DE9F843984625
:1041000003680646144618680D46586800901868FB
:1041100058680090186858680090186858680090AF
:104120005868002700900BE0E91943460122304609
:10413000FFF7F0FB10B10120BDE8F8837F1CBFB290
:10414000A742F1D30020F7E70A4910B5087970B902
:10415000002001F1140201F12003145C3CB91C5C45
:104160002CB9401C0428F8DBC878002800D00120B6
:1041700010BD0000C40000201D4900200A7802B1D3
:1041800001204A780AB140F002008A780AB140F072
:104190000400C97809B140F0080015490C310A78CB
:1041A0000AB140F010004A780AB140F020008A7845
:1041B0000AB140F04000C97809B140F080000C4AD3
:1041C000143A1179012904D0022905D0032906D017
:1041D00007E040F4807004E040F4007001E040F437
:1041E0008060D178002901D040F400607047000061
:1041F000D80000202DE9F041314CE17800295DD153
:1042000000285BD0B4F90810DFED2E0A00EE101A7A
:10421000304AB8EEC00A20EE200AF0EE000A20EE86
:10422000200ADFED290A20EE200ADFED280A80EEC1
:10423000201ABCEEC10A9FED261A10EE101A00EEED
:10424000100AB8EE400AC0EE010A00EE101AB8EEED
:10425000401A81EE200A10EE100AB0F17E5F02DAF9
:10426000B7EE000A05E010EE100A904201DD9FED66
:104270001A0ADFED1A0A80EE801ABCEEC10A10EEAF
:10428000100A05042D0C00D10125154E0027012030
:10429000378571857762E07009491431C87001462D
:1042A000032002F01DFA0F480068416A29440164A6
:1042B0000C210C48FFF77AF8F585A770BDE8F0816E
:1042C000C40000200000C845000034430000B4438F
:1042D00000007A4400007A4700007A4700247449BD
:1042E000E8460020A008002010B5012280210A48DD
:1042F000FEF7ABF9094C0122D1022046FEF7A5F9E1
:10430000012204212046FEF7A0F901228021044861
:10431000FEF79BF9002010BD000C02400014024083
:10432000001C02400F4810B5407808B1012010BDB4
:10433000002280210C48FEF788F90C4C00224FF433
:1043400000612046FEF781F9002204212046FEF795
:104350007CF9002280210648FEF777F90549002004
:10436000087010BDC4000020000C02400014024080
:10437000001C0240A60500200D4810B5407808B189
:10438000012010BD0B490020087001460A48FFF7C4
:104390000DF804210848FFF709F808210648FFF73F
:1043A00005F80C210448FFF701F8002010BD0000BB
:1043B000C4000020A6050020A008002010B504219C
:1043C0000848FFF76DF800210648FFF769F8082153
:1043D0000448FFF765F80C210248FFF761F8002058
:1043E00010BD0000A008002010B5040006D0012C6C
:1043F00006D0022C11D0032C06D110E0002100E0E1
:1044000004210848FFF74CF80749002041F8240030
:10441000064908550C39085510BD0821F1E70C2153
:10442000EFE70000A0080020B0460020E4000020D4
:104430002DE9F04F044600689D4993B0884254D15D
:10444000207F012854D0022855D0042856D00828AF
:104450004BD103255FF00C079648DFF85CB205EB03
:104460004501DFF858A200EB81064FF00008ABF1E0
:104470000C09032D45D0F08800286FD0B088326831
:1044800000EB400032F81010002968D0F3885B1E62
:10449000F380042303EB4000105C00287DD0581FFC
:1044A000844A283A032D52F82530034442F8253037
:1044B00005D2103252F82530184442F82500002F5A
:1044C0006CD0042F6BD02068082F69D0006C084492
:1044D000DAF80C10814201D2401A401EEFB3042FCB
:1044E0006CD02168082F6CD0086413B0BDE8F08F41
:1044F00000252F46B0E701250427ADE70225082750
:10450000AAE76D4DC08D203D0190B5F9080000EE81
:10451000100AB8EEC00ADFED6A0A20EE200ADFEDCD
:10452000690A20EE200ADFED680A80EE201ABCEE50
:10453000C10A10EE100A0090F088C8B9A87978B1C5
:1045400085F80680444685F803800320FFF74CFF7A
:104550008BF8034089F80340C7E72CE033E094E090
:104560000120A8710021032002F0BAF80098F08021
:1045700080B2401EF0804F48A9792838C26881B1C6
:104580004FF0FF311144C1606FB1042F0ED020688D
:10459000082F0ED0006C019999E77EE07FE081E062
:1045A00083E00121EEE72068406BF4E72068806B30
:1045B000F1E7C06BEFE72168486396E721688863FD
:1045C00093E7C86391E741490222B088401C80B25A
:1045D000B0804B5D98423CD32846FFF705FF364834
:1045E0000BF80580203809F80580027844464946D2
:1045F000002AB1D10A78002AAED14A78002AABD17C
:1046000099F802100029A7D10121017030490968E9
:104610004D6A9FED301A00EE105A0561F8EE400A1F
:1046200080EE810A10EE100A02F08CFECDE9000146
:104630002B4629A2402102A8FBF738FF02A801F06F
:1046400029FBFDF747FCDAF8000044622E480470AD
:104650004BE7336800EB400002EB400C33F80CC032
:10466000A6F806C033F91000BCF1000FADD0002849
:104670003FF404AFB08800EB4002042000EB42009E
:10468000195C284602F02CF8F8E62846FFF7ACFE45
:104690000BF8058009F8058027E7012000E720686E
:1046A000406B14E72068806B11E7C06B0FE70000D8
:1046B00000040140E8460020E4000020A00800209B
:1046C0000000C845000034430000B4439D050020AD
:1046D0005808002000007A445472616A6563746F60
:1046E000727920444F4E452E205265616C207469CA
:1046F0006D65203D20256C75207573203D20252E8D
:104700003266206D730D0A00A70500202DE9F047E1
:10471000414E2DED048B82B0307908B13FA008E006
:104720003D481430017819B9417809B9807818B139
:1047300046A001F0AFFA4BE0707980B3DFED4D0A8F
:10474000B6F9080000EE100AB8EEC00A60EE800A62
:104750009FED498A80EE880A01F0A3FB4000DFF854
:104760001C8147420025A8F10C09DFED458AB0EE17
:10477000009A4FF4803A00BF58F8250059F82510E8
:104780003844441AB6F9080000EE100AB8EEC00A20
:1047900020EE280A60EE090A04D4204603E0FFE771
:1047A00038A0C6E7604200EE100AB8EEC00A20EE5C
:1047B000081A81EE200A01F074FB002C00DA404256
:1047C00000F50041514509D343F21700FDF7ACF85D
:1047D000002002B0BDEC048BBDE8F0872DF8150079
:1047E0006D1C032DC8DBBDF8000028B9BDF8020020
:1047F00010B9BDF8040058B140F6C4120121684652
:10480000FDF792F941F21700FDF78EF80120E0E77D
:1048100041F21800F8E70000C40000205B34303794
:104820005D204D6F7665576F726B3A2069676E6FCA
:10483000726564202863616C6962726174696F6E6D
:104840002062757379290D0A000000005B3430374F
:104850005D204D6F7665576F726B3A2069676E6F9A
:1048600072656420286D6F746F727320627573793E
:10487000290D0A000048EE4A00C0A846DC46002088
:104880000000C8455B3430375D204D6F7665576F4B
:10489000726B3A2069676E6F7265642028686F6D6D
:1048A00065206E6F742063616C6962726174656407
:1048B000290D0A00FEE7000030B589B00AA001F01A
:1048C000E9F9104D002400BF35F8143022460EA13E
:1048D0006846FBF7D7FD684601F0DCF9641C0A2C3A
:1048E000F2DB09B030BD00003D3D3D204572726FE6
:1048F00072206C6F672064756D70203D3D3D0D0A20
:1049000000000000F8BB00202325303264202D3E3B
:1049100020253034750D0A002DE9F04FD5B0F9A0EF
:1049200001F0B8F94FF4807A51466846FBF7E0FF92
:104930004FF0FF36334606226946F948FFF7DDFBA4
:1049400008B1F8A0C7E1BDF802209DF8001055BAE3
:10495000BDF804209DF8010054BA012979D1DFF88F
:10496000E0B34FF003096946032807D0102871D03F
:10497000F4A001F08FF944F2080029E13346022245
:10498000E748891DFFF7B9FB28B1F4A001F082F9CF
:104990004FF480401CE1BDF8066006216846FFF731
:1049A00092FB864205D0F3A001F074F944F20100B5
:1049B0000EE12819252805D9F3A001F06BF944F27E
:1049C000020005E101208DF800018DF801916000E1
:1049D0008DF8020100F040FB0026DFF8C48340AFF1
:1049E0008FE00020A919252971D2DFE801F0838327
:1049F00083831315181A1C1F81212634393E43481E
:104A00004D52575F6164676A6D7175797C81817FF2
:104A1000837F8300E34800E0E34800786AE0E348EE
:104A2000FBE7E348F9E7FFF7A7FB63E0E148F4E7BA
:104A300098F800000A21093003E098F800000A21E4
:104A40000830B0FBF1F201FB1201DB4830F8110035
:104A500050E0BFE077E098F800000A21C01DF0E7C1
:104A600098F800000A21801DEBE798F800000A2161
:104A7000401DE6E798F800000A21001DE1E798F8DC
:104A800000000A21C01CDCE798F800000A21801C05
:104A9000D7E798F800000A21401CD2E798F80010E8
:104AA0000A20B1FBF0F200FB1211CEE7C348B4E7D5
:104AB000C24840781EE0C14880781BE0BF48C078FB
:104AC00018E0BF48006805E0BD48006806E00FE058
:104AD000BB48406880B20DE0B9484068000C09E06E
:104AE000B7488068F6E7B6488068F7E7012001E03C
:104AF0004FF6FF70020A07EB4601761CCA70087178
:104B0000B6B2A642FFF46DAF09EB440081B240A8F3
:104B1000FFF7D9FA07EB44010122C870000A0871B7
:104B2000564651465D465846FDF78FFD052000EB81
:104B3000440082B24FF47A7340A97948FEF743FFEC
:104B40000022314664E288464FF0FF330122744868
:104B5000891DFFF7D2FA28B19AA001F09BF844F220
:104B6000030035E09DF8067007F10906BA1CB6F59A
:104B7000807F05D99AA001F08DF844F2040027E067
:104B80004FF0FF3308F107016548FFF7B6FA28B187
:104B90009BA001F07FF844F2050019E008EB060045
:104BA000C24630F8028CB61EB1B26846FFF78BFAE7
:104BB000404505D099A001F06DF844F2060007E0E9
:104BC000B7EB440F09D09AA001F064F844F2070053
:104BD000FCF7AAFE55B0BDE8F08F714B4FF4C872D8
:104BE0001B1D954252D3A5F5C871484691FBF0F6BE
:104BF00009FB161626B9B4FBF0F600FB164636B1D3
:104C0000954243D190A000BF01F044F8D1E191FB5F
:104C1000F0F1B4FBF9F48DB214FA81F0C82801D98F
:104C200093A058E000215646DFF8608215E000BFEF
:104C30006A1802EB420201EB410708EB420C3A18FA
:104C400006EB4202B2F8072052BA2CF81020401CA2
:104C5000C0B20328F3D3491C89B2A1424FF000002F
:104C6000E6D329194E4CCDB2641C33F810608AB2D9
:104C7000964201D223F81020265C964200D2255499
:104C8000401CC0B20328F0D381A0BDE740F22D1232
:104C9000901C40F29711B5F5967F06D041F21006B0
:104CA00095422CD1012C22D063E1022C28D1BDF8F1
:104CB000070041BABDF80900C82942BA01D97DA050
:104CC00009E01888884205D35888884202D398881A
:104CD000884203D27FA000F0DDFF7BE76B48FCF742
:104CE00023FF85A000F0D6FF41F2090030E1BDF8B6
:104CF000070040BA012803D1FDF784FA0EE10FE165
:104D000028E100004D4F44425553203E207374610A
:104D1000727420726563656976650D0A0000000093
:104D20003009002052656365697665206572726F8F
:104D3000722028686561646572290D0A0000000010
:104D4000001C0240556E737570706F72746564203C
:104D500066756E6374696F6E0D0A00005265636557
:104D6000697665206572726F722028435243290D5F
:104D70000A000000435243206572726F722028724D
:104D8000656164290D0A0000526567697374657274
:104D9000206F7574206F662072616E67650D0A0062
:104DA0009C050020E8000020C5000020C60000206F
:104DB000EA000020E9000020F8BB0020DC00002011
:104DC000D046002052656365697665206572726F12
:104DD00072202862797465636F756E74290D0A00FC
:104DE0005061636B657420746F6F206C61726765CE
:104DF00020666F72206275666665720D0A0000009B
:104E000052656365697665206572726F72202864E9
:104E10006174612B435243290D0A00004352432021
:104E20004572726F7220287772697465290D0A00C5
:104E300042797465436F756E74206D69736D61742A
:104E400063680D0A00000000496E76616C69642099
:104E50007365676D656E7420636F756E74206F7215
:104E6000206F766572666C6F772E0D0A0000000069
:104E7000546F6F206D616E7920746F74616C207354
:104E800065676D656E74730D0A000000EC0000200C
:104E9000416E676C65207365676D656E7420626135
:104EA000746368207772697474656E204F4B0D0AC5
:104EB00000000000546F6F206D616E79207365678C
:104EC0006D656E74732C206C696D6974203230309E
:104ED0000D0A00005365676D656E7473206E6F7404
:104EE0002066756C6C7920726563656976656420EF
:104EF0007965740D0A0000005472616A6563746F0D
:104F000072792073746172746564207669612063BC
:104F10006F6D6D616E640D0A0000000040A014E02A
:104F2000B5F5977F04D0854223D1012C13D040E002
:104F3000022C3ED1BDF8070041BABDF80900012995
:104F400040BA36D1FFF756F93DA000F0A3FE304637
:104F5000FCF7EAFC2DE0BDF8070040BA012828D193
:104F6000FCF7FCFF10B141F21100F1E742F2110031
:104F7000EEE7B5F5CB7F04D08D421AD1012C10D0CD
:104F800017E0012C15D1BDF8070040BA012810D157
:104F9000FCF7BEFE10B141F21200D9E742F2120056
:104FA000D6E7BDF8070040BA012802D1FFF7AEFBF3
:104FB00090B301208DF8000110208DF801019DF8BB
:104FC00002008DF802019DF803008DF803019DF8A1
:104FD00004008DF804019DF805008DF805010621F7
:104FE00040A8FFF770F88DF80601000A01228DF83D
:104FF0000701140221465D465846FDF726FB4FF493
:105000007A73082240A91348FEF7DDFC00222146EE
:105010002846FDF71AFBDDE5FFE742F2170097E7A8
:10502000476F20746F20686F6D6520636F6D6D61D1
:105030006E642061636365707465640D0A0000002E
:1050400052756E6E696E672034206368616E6E659E
:105050006C0D0A003009002010B5064C607808B1CC
:10506000002004E0FFF770F80028F9D10120A070BB
:1050700010BD0000C4000020F0B589B004460D004A
:105080004FF0000602D50126484205B231462046BF
:1050900001F026FB1C4F388915FB00F04FF44851F6
:1050A000484345F26041B0FBF1F000B901201749D7
:1050B00041F8240014490120203108550C390855C5
:1050C00034B1012C06D0022C19D0032C06D118E0E3
:1050D000002100E004210E48FEF768F90020B870B6
:1050E0000CA000F0D7FD2B46621C10A101A8009671
:1050F000FBF7C8F901A800F0CDFD09B0F0BD08210B
:10510000E9E70C21E7E70000C4000020B0460020DA
:10511000A00800204261636B4F6666207374617261
:10512000746564206D6F746F723D00002564207398
:10513000746570733D2564206469723D25640D0AB1
:105140000000000008B50020294DADF8000002461F
:105150004FF4806631462846FDF777FA41F2111088
:10516000FCF7E2FB234F78680028FCD04FF0FF32B9
:10517000694601F03BFE0128F5D1BDF80040642CE2
:1051800000D9642441F21010FCF7CEFB0122314615
:105190002846FDF75AFA4FF47A7060434FF47A715B
:1051A000B0FBF1F001F094FB17E0012231462846F4
:1051B000FDF74BFA012001F08BFB641CBDF80000E9
:1051C000A4B284420DD2002231462846FDF73DFAB2
:1051D000012001F07DFB641CA4B2BDF800008442F4
:1051E000E3D3002231462846FDF72FFABBE7000043
:1051F000002002400000002008B541F20100FCF749
:1052000093FBFCF7FBFB01F02DFF0021574D584AA3
:105210006B1F0C466C545C5442F82100491CC9B207
:105220000529F7D301F01EFF524F4FF00108DFF8B8
:105230004891524D524E009001F014FF82460146B3
:105240000020FEF74FFCB8B185F800803C70347048
:1052500089F80080FFF766F8FCF75AFD28B149A0ED
:1052600000F018FD41F2120004E04FA000F012FD22
:1052700042F21200FCF758FB51460120FEF732FCC7
:10528000C0B12878B0B13878A0B9307890B14F4823
:1052900089F8008041F2883204704D483221046060
:1052A0004C48FCF741FC4CA000F0F4FC41F2050036
:1052B000FCF73AFB51460220FEF714FCA0B1287817
:1052C00090B1387880B9307870B189F80080FFF7F4
:1052D00053F801F0DBF900F085F948A000F0DAFCA2
:1052E00041F20600FCF720FB51460320FEF7FAFBD3
:1052F000002826D0FEF7F8FF47A000F0CBFC0021E5
:105300004A48FEF7CDF804214848FEF7C9F80821BD
:105310004648FEF7C5F80C214448FEF7C1F8444959
:1053200000200C54401C0428FBDB2C70347041A07E
:1053300000F0B0FC48A000F0ADFC41F20700FCF723
:10534000F3FA51460420FEF7CDFB40B1FFF7B4FA63
:1053500047A000F09FFC41F20800FCF7E5FAFFF7D8
:105360007BFE0121684601F0D9FA65E7250000209F
:10537000A8050020C5000020E9000020EA00002068
:10538000C60000204B455931207072657373656407
:10539000203E2063616C6962726174696F6E207374
:1053A000746172740D0A00004B45593120707265AA
:1053B00073736564203E2063616C69627261746915
:1053C0006F6E20627573790D0A000000C400002022
:1053D000D4000020EC0000204B455932207072654B
:1053E00073736564203E20436F756E746572636CE1
:1053F0006F636B776973650D0A0000004B45593385
:105400002070726573736564203E20436C6F636B1C
:10541000776973650D0A000054696D657220382044
:1054200073746F707065640D0A000000A00800209E
:10543000E40000204B455934207072657373656435
:10544000203E2064726976657220646561637469C8
:1054500076617465640D0A00416C6C206D6F746F29
:1054600072732064697361626C65640D0A000000E8
:105470004B4559352070726573736564203E206416
:105480006973706C6179206C6F67730D0A0000009E
:1054900008B541F20200FCF747FA3D4D3D4EDFF8FA
:1054A000F8A005F108074FF0010900BFFCF7F2FC76
:1054B000287820B10024385D01280CD02CE0315C24
:1054C0003954401CC0B20428F9D301F0CBFDE86088
:1054D00085F8009026E0305DF0B901F0C3FDE96881
:1054E0008046401A502817D304F58850FCF71CFA60
:1054F000FA20ADF8000068B16868B8B100231A4618
:10550000694601F0C3FB012804D044F2101000BF2B
:10551000FCF70AFAC5F80C80305D3855641CE4B21B
:10552000042CC8D31D48007818B128E044F21110AB
:10553000EEE70024305DF0B91948005DD8B1194894
:10554000005DC0B9032C16D204EB44005AF82010B9
:1055500089B10AEB8000C2886AB18088042200EB1E
:10556000400002EB4000085C28B92046FEF73CFFF3
:105570000A2001F0ADF9641CE4B2032CDAD3FCF785
:1055800015FCFFF769FD022001F0A2F98EE700008B
:1055900000000020DC000020E8460020C8000020B9
:1055A000D8000020E400002008B541F20300FCF719
:1055B000BBF901F057FD094D094C0090FFF74CFD78
:1055C000FFF7AAF9287818B1207808B1FEF7AAFEEB
:1055D0000121684601F0A2F9F0E70000EA0000208E
:1055E000C600002010B526A2F0212748FCF7AEF92E
:1055F00026A2F0212748FCF7A9F927A2F021284884
:10560000FCF7A4F927A214211F48FEF7A9FA0020ED
:105610000146274A30E078B301282FD0204B00BF45
:1056200000EB4004401C42F8243002EB84040328C1
:10563000A1805B88E380EEDB1E480268516212495C
:105640000268B1F90010516312490268B1F9001003
:10565000916313490068B1F90010C1630021154836
:10566000FDF7A4FE04211348FDF7A0FEBDE810409D
:1056700008211048FDF79ABE034BD1E7054BCFE751
:105680006D6F746F7231000018AB00206D6F746F16
:1056900072320000B8B000206D6F746F723300007A
:1056A00058B6002057617665427954696D650000EF
:1056B000E8460020A00800202DE9FE4F264A0646B5
:1056C000DFF898A007CA8DE80700DAF8001000207C
:1056D0004862DFF88C900446804689F800002CE090
:1056E000204F04EB44055DF8240007EB850147F8E3
:1056F0002500A1F804804288CA800179204600F084
:10570000EFFF174901201431085557F8250000888C
:1057100000B9012024B1012C07D0022C0CD115E0D6
:10572000DAF800104863002103E0DAF8001088631B
:1057300004210A48FDF73AFE641CB442D0DB89F824
:10574000028009A000F0A6FABDE8FE8FDAF800108A
:10575000C8630821EDE7000034750008A0080020A8
:10576000C4000020E84600205472616A6563746FCB
:1057700072792073746172746564207573696E67E1
:10578000206275696C742070726F66696C65730D48
:105790000A00000010B5502080F31188BFF34F8F2E
:1057A000BFF36F8F01F064FC18B104494FF08050D3
:1057B0000860002080F3118810BD000004ED00E0B7
:1057C00030B593B030216846FBF792F814210CA84D
:1057D000FBF78EF81C480025016841F080510160FC
:1057E000006800F0805011901848016841F4804131
:1057F00001600068022400F48040119001200390B1
:105800001020009406940490CDE907504FF4A8703E
:10581000CDE9090404200B906846FDF7F7F808B1BC
:1058200072B6FEE70CA90F2081E831004FF4A050BA
:105830000F90109005210CA8FCF7DCFF002801D088
:1058400072B6FEE713B030BD403802400070004031
:105850000248016841F470010160704788ED00E082
:105860000148FDF786BC0000780900200148FDF7DB
:1058700080BC0000A00800200148FDF77ABC0000B1
:10588000A00800200148FDF774BC0000A00800201B
:105890000148FDF76EBC0000A0080020F0B50268CA
:1058A000274B284D284E294F294C4FF0804C9842C9
:1058B00009D0604507D0A84205D0B04203D0B84215
:1058C00001D0A04204D122F0700E4A6842EA0E02D2
:1058D00098421BD0604519D0A84217D0B04215D0CD
:1058E000B84213D0A04211D01A4DA8420ED01A4D82
:1058F000A8420BD0194DA84208D0194DA84205D096
:10590000184DA84202D0184DA84203D122F4407588
:10591000CA682A434D6922F080022A438D68C56215
:105920000D688562984201D0A04201D109690163E6
:10593000016841F004010160012141610260F0BD94
:10594000000001400004004000080040000C00403E
:105950000004014000400140004401400048014073
:1059600000180040001C00400020004010B501F06D
:105970001F030121046A99408C430462016A9A4022
:105980001143016210BD10B5846842EA032224F479
:105990007F440A432243826010BD826822F0700275
:1059A0000A4342F00701816070470000F0B5036AC6
:1059B000026A22F00102026242688469124E24F0F7
:1059C00073050C682C4323F002058B682B430D4DA7
:1059D000A84201D0B04205D123F00807CB683B4371
:1059E00023F00403A84201D0B04205D14D6922F44E
:1059F000407215438A692A43426084614968416361
:105A00000362F0BD0000014000040140F0B5026AED
:105A1000036A23F010030362436884690D6824F469
:105A2000E64444EA05248D6822F0200242EA051289
:105A30000F4D104EA84201D0B04206D1CF6822F0DF
:105A4000800242EA071222F04002A84201D0B0428E
:105A500007D14D6923F4406343EA85038D6943EA26
:105A6000850343608461496881630262F0BD000080
:105A70000000014000040140F0B5026A036A23F40B
:105A8000807303624368C46922F4007224F07305D2
:105A90000C68124E2C438D6842EA05220E4DA84236
:105AA00001D0B04206D1CF6822F4006242EA072258
:105AB00022F48062A84201D0B04207D14D6923F49C
:105AC000405343EA05138D6943EA05134360C461FB
:105AD0004968C1630262F0BD00000140000401405A
